{
  "_format": "hh3-artifact-1",
  "contractName": "CredentialRegistry",
  "sourceName": "contracts/CredentialRegistry.sol",
  "abi": [
    {
      "inputs": [],
      "name": "CredentialTypeAlreadyExists",
      "type": "error"
    },
    {
      "inputs": [],
      "name": "CredentialTypeNotExists",
      "type": "error"
    },
    {
      "inputs": [],
      "name": "DIDAlreadyRegistered",
      "type": "error"
    },
    {
      "inputs": [],
      "name": "DIDNotRegistered",
      "type": "error"
    },
    {
      "inputs": [],
      "name": "EmptyCID",
      "type": "error"
    },
    {
      "inputs": [],
      "name": "EmptyCredentialType",
      "type": "error"
    },
    {
      "inputs": [],
      "name": "EmptyDID",
      "type": "error"
    },
    {
      "inputs": [],
      "name": "Unauthorized",
      "type": "error"
    },
    {
      "anonymous": false,
      "inputs": [
        {
          "indexed": true,
          "internalType": "bytes32",
          "name": "didHash",
          "type": "bytes32"
        },
        {
          "indexed": false,
          "internalType": "string",
          "name": "did",
          "type": "string"
        },
        {
          "indexed": false,
          "internalType": "string",
          "name": "cid",
          "type": "string"
        },
        {
          "indexed": false,
          "internalType": "string",
          "name": "credentialType",
          "type": "string"
        },
        {
          "indexed": true,
          "internalType": "address",
          "name": "submitter",
          "type": "address"
        }
      ],
      "name": "ClaimIssued",
      "type": "event"
    },
    {
      "anonymous": false,
      "inputs": [
        {
          "indexed": true,
          "internalType": "string",
          "name": "credentialType",
          "type": "string"
        },
        {
          "indexed": true,
          "internalType": "address",
          "name": "issuer",
          "type": "address"
        },
        {
          "indexed": false,
          "internalType": "string",
          "name": "description",
          "type": "string"
        }
      ],
      "name": "CredentialTypeCreated",
      "type": "event"
    },
    {
      "anonymous": false,
      "inputs": [
        {
          "indexed": true,
          "internalType": "bytes32",
          "name": "didHash",
          "type": "bytes32"
        },
        {
          "indexed": false,
          "internalType": "string",
          "name": "did",
          "type": "string"
        },
        {
          "indexed": true,
          "internalType": "address",
          "name": "ethOwner",
          "type": "address"
        }
      ],
      "name": "DIDRegistered",
      "type": "event"
    },
    {
      "inputs": [
        {
          "internalType": "string",
          "name": "credentialName",
          "type": "string"
        },
        {
          "internalType": "string",
          "name": "description",
          "type": "string"
        }
      ],
      "name": "createCredential",
      "outputs": [],
      "stateMutability": "nonpayable",
      "type": "function"
    },
    {
      "inputs": [
        {
          "internalType": "string",
          "name": "credentialType",
          "type": "string"
        }
      ],
      "name": "credentialExists",
      "outputs": [
        {
          "internalType": "bool",
          "name": "",
          "type": "bool"
        }
      ],
      "stateMutability": "view",
      "type": "function"
    },
    {
      "inputs": [
        {
          "internalType": "string",
          "name": "",
          "type": "string"
        }
      ],
      "name": "credentials",
      "outputs": [
        {
          "internalType": "address",
          "name": "issuer",
          "type": "address"
        },
        {
          "internalType": "string",
          "name": "description",
          "type": "string"
        },
        {
          "internalType": "bool",
          "name": "exists",
          "type": "bool"
        }
      ],
      "stateMutability": "view",
      "type": "function"
    },
    {
      "inputs": [
        {
          "internalType": "string",
          "name": "did",
          "type": "string"
        }
      ],
      "name": "didHash",
      "outputs": [
        {
          "internalType": "bytes32",
          "name": "",
          "type": "bytes32"
        }
      ],
      "stateMutability": "pure",
      "type": "function"
    },
    {
      "inputs": [
        {
          "internalType": "bytes32",
          "name": "",
          "type": "bytes32"
        }
      ],
      "name": "ethOwnerOf",
      "outputs": [
        {
          "internalType": "address",
          "name": "",
          "type": "address"
        }
      ],
      "stateMutability": "view",
      "type": "function"
    },
    {
      "inputs": [
        {
          "internalType": "string",
          "name": "did",
          "type": "string"
        },
        {
          "internalType": "string",
          "name": "credentialType",
          "type": "string"
        }
      ],
      "name": "getClaim",
      "outputs": [
        {
          "internalType": "string",
          "name": "",
          "type": "string"
        }
      ],
      "stateMutability": "view",
      "type": "function"
    },
    {
      "inputs": [
        {
          "internalType": "string",
          "name": "did",
          "type": "string"
        }
      ],
      "name": "getCurrentNonce",
      "outputs": [
        {
          "internalType": "uint256",
          "name": "",
          "type": "uint256"
        }
      ],
      "stateMutability": "view",
      "type": "function"
    },
    {
      "inputs": [
        {
          "internalType": "string",
          "name": "did",
          "type": "string"
        }
      ],
      "name": "isDIDRegistered",
      "outputs": [
        {
          "internalType": "bool",
          "name": "",
          "type": "bool"
        }
      ],
      "stateMutability": "view",
      "type": "function"
    },
    {
      "inputs": [
        {
          "internalType": "bytes32",
          "name": "",
          "type": "bytes32"
        }
      ],
      "name": "isRegistered",
      "outputs": [
        {
          "internalType": "bool",
          "name": "",
          "type": "bool"
        }
      ],
      "stateMutability": "view",
      "type": "function"
    },
    {
      "inputs": [
        {
          "internalType": "string",
          "name": "did",
          "type": "string"
        },
        {
          "internalType": "string",
          "name": "cid",
          "type": "string"
        },
        {
          "internalType": "string",
          "name": "credentialType",
          "type": "string"
        },
        {
          "internalType": "bytes",
          "name": "sig",
          "type": "bytes"
        }
      ],
      "name": "issueClaim",
      "outputs": [],
      "stateMutability": "nonpayable",
      "type": "function"
    },
    {
      "inputs": [
        {
          "internalType": "bytes32",
          "name": "",
          "type": "bytes32"
        },
        {
          "internalType": "string",
          "name": "",
          "type": "string"
        }
      ],
      "name": "latestClaim",
      "outputs": [
        {
          "internalType": "string",
          "name": "",
          "type": "string"
        }
      ],
      "stateMutability": "view",
      "type": "function"
    },
    {
      "inputs": [
        {
          "internalType": "bytes32",
          "name": "",
          "type": "bytes32"
        }
      ],
      "name": "nonces",
      "outputs": [
        {
          "internalType": "uint256",
          "name": "",
          "type": "uint256"
        }
      ],
      "stateMutability": "view",
      "type": "function"
    },
    {
      "inputs": [
        {
          "internalType": "string",
          "name": "did",
          "type": "string"
        },
        {
          "internalType": "address",
          "name": "expectedEthOwner",
          "type": "address"
        },
        {
          "internalType": "bytes",
          "name": "sig",
          "type": "bytes"
        }
      ],
      "name": "registerDID",
      "outputs": [],
      "stateMutability": "nonpayable",
      "type": "function"
    }
  ],
  "bytecode": "0x6080604052348015600e575f5ffd5b506113968061001c5f395ff3fe608060405234801561000f575f5ffd5b50600436106100cb575f3560e01c80637199a82f11610088578063c056290511610063578063c0562905146101d6578063c9b3a60a14610216578063ff83e1a514610229578063fff69d7f1461023c575f5ffd5b80637199a82f146101825780639e317f1214610195578063bf4af9b1146101b4575f5ffd5b80631de3f1dc146100cf5780631f547939146100f75780631fdfa5d51461011757806327258b221461012c5780634e7692bb1461014e578063557cc71514610161575b5f5ffd5b6100e26100dd366004610c67565b61024f565b60405190151581526020015b60405180910390f35b61010a610105366004610ca5565b610279565b6040516100ee9190610d3d565b61012a610125366004610d56565b610344565b005b6100e261013a366004610e20565b60016020525f908152604090205460ff1681565b6100e261015c366004610c67565b6105bf565b61017461016f366004610c67565b6105f0565b6040519081526020016100ee565b61012a610190366004610ca5565b610622565b6101746101a3366004610e20565b60026020525f908152604090205481565b6101c76101c2366004610ed4565b6107a8565b6040516100ee93929190610f0d565b6101fe6101e4366004610e20565b5f602081905290815260409020546001600160a01b031681565b6040516001600160a01b0390911681526020016100ee565b61012a610224366004610f42565b610869565b61010a610237366004610fcd565b610a1b565b61017461024a366004610c67565b610ace565b5f60015f61025d85856105f0565b815260208101919091526040015f205460ff1690505b92915050565b606060045f61028887876105f0565b81526020019081526020015f2083836040516102a5929190611010565b908152602001604051809103902080546102be9061101f565b80601f01602080910402602001604051908101604052809291908181526020018280546102ea9061101f565b80156103355780601f1061030c57610100808354040283529160200191610335565b820191905f5260205f20905b81548152906001019060200180831161031857829003601f168201915b50505050509050949350505050565b5f87900361036557604051632abd438960e21b815260040160405180910390fd5b5f8590036103865760405163063ee91d60e41b815260040160405180910390fd5b5f8390036103a75760405163bc34f91b60e01b815260040160405180910390fd5b5f6103b289896105f0565b5f818152602081905260409020549091506001600160a01b03168015806103e757505f8281526001602052604090205460ff16155b156104055760405163361a273360e01b815260040160405180910390fd5b60038686604051610417929190611010565b9081526040519081900360200190206002015460ff1661044a5760405163eb91d57b60e01b815260040160405180910390fd5b5f828152600260209081526040808320549051610476928e928e928e928e928e928e9230929101611057565b6040516020818303038152906040528051906020012090505f6104ce8287878080601f0160208091040260200160405190810160405280939291908181526020018383808284375f92019190915250610af292505050565b9050826001600160a01b0316816001600160a01b031614610501576040516282b42960e81b815260040160405180910390fd5b898960045f8781526020019081526020015f208a8a604051610524929190611010565b9081526020016040518091039020918261053f929190611107565b505f84815260026020526040812080546001929061055e9084906111c0565b92505081905550336001600160a01b0316847f46d1cb41745c409d09bbf7cfdbbf0926c0f713786e7b5e605f9d8d62479c5b768e8e8e8e8e8e6040516105a996959493929190611207565b60405180910390a3505050505050505050505050565b5f600383836040516105d2929190611010565b9081526040519081900360200190206002015460ff16905092915050565b5f8282604051602001610604929190611010565b60405160208183030381529060405280519060200120905092915050565b5f8390036106435760405163bc34f91b60e01b815260040160405180910390fd5b60038484604051610655929190611010565b9081526040519081900360200190206002015460ff1615610689576040516374dec29760e01b815260040160405180910390fd5b6040518060600160405280336001600160a01b0316815260200183838080601f0160208091040260200160405190810160405280939291908181526020018383808284375f9201919091525050509082525060016020909101526040516003906106f69087908790611010565b90815260405160209181900382019020825181546001600160a01b0319166001600160a01b03909116178155908201516001820190610735908261124f565b50604091820151600291909101805460ff19169115159190911790555133906107619086908690611010565b60405180910390207f5f2736fce2adcf23991cae5493c141d9d079493ed117d9e7be1df807787fe567848460405161079a929190611309565b60405180910390a350505050565b8051602081830181018051600382529282019190930120915280546001820180546001600160a01b0390921692916107df9061101f565b80601f016020809104026020016040519081016040528092919081815260200182805461080b9061101f565b80156108565780601f1061082d57610100808354040283529160200191610856565b820191905f5260205f20905b81548152906001019060200180831161083957829003601f168201915b5050506002909301549192505060ff1683565b5f84900361088a57604051632abd438960e21b815260040160405180910390fd5b5f61089586866105f0565b5f8181526001602052604090205490915060ff16156108c75760405163ca2f36c360e01b815260040160405180910390fd5b5f8181526002602090815260408083205490516108ea928a928a9230920161131c565b6040516020818303038152906040528051906020012090505f6109428286868080601f0160208091040260200160405190810160405280939291908181526020018383808284375f92019190915250610af292505050565b9050856001600160a01b0316816001600160a01b031614610975576040516282b42960e81b815260040160405180910390fd5b5f8381526020818152604080832080546001600160a01b0319166001600160a01b038b161790556001808352818420805460ff191682179055600290925282208054919290916109c69084906111c0565b92505081905550856001600160a01b0316837fc53c07fb641c4cc0270d682bc95e6ae470f8feb8e4a2c06c56c3074bf3127ada8a8a604051610a09929190611309565b60405180910390a35050505050505050565b600460209081525f9283526040909220815180830184018051928152908401929093019190912091528054610a4f9061101f565b80601f0160208091040260200160405190810160405280929190818152602001828054610a7b9061101f565b8015610ac65780601f10610a9d57610100808354040283529160200191610ac6565b820191905f5260205f20905b815481529060010190602001808311610aa957829003601f168201915b505050505081565b5f60025f610adc85856105f0565b81526020019081526020015f2054905092915050565b6040517f19457468657265756d205369676e6564204d6573736167653a0a3332000000006020820152603c81018390525f908190605c016040516020818303038152906040528051906020012090505f5f5f610b4d86610bbb565b604080515f81526020810180835289905260ff8516918101919091526060810183905260808101829052929550909350915060019060a0016020604051602081039080840390855afa158015610ba5573d5f5f3e3d5ffd5b5050604051601f19015198975050505050505050565b5f5f5f8351604114610c085760405162461bcd60e51b81526020600482015260126024820152710d2dcecc2d8d2c840e6d2ce40d8cadccee8d60731b604482015260640160405180910390fd5b505050602081015160408201516060909201515f1a92909190565b5f5f83601f840112610c33575f5ffd5b5081356001600160401b03811115610c49575f5ffd5b602083019150836020828501011115610c60575f5ffd5b9250929050565b5f5f60208385031215610c78575f5ffd5b82356001600160401b03811115610c8d575f5ffd5b610c9985828601610c23565b90969095509350505050565b5f5f5f5f60408587031215610cb8575f5ffd5b84356001600160401b03811115610ccd575f5ffd5b610cd987828801610c23565b90955093505060208501356001600160401b03811115610cf7575f5ffd5b610d0387828801610c23565b95989497509550505050565b5f81518084528060208401602086015e5f602082860101526020601f19601f83011685010191505092915050565b602081525f610d4f6020830184610d0f565b9392505050565b5f5f5f5f5f5f5f5f6080898b031215610d6d575f5ffd5b88356001600160401b03811115610d82575f5ffd5b610d8e8b828c01610c23565b90995097505060208901356001600160401b03811115610dac575f5ffd5b610db88b828c01610c23565b90975095505060408901356001600160401b03811115610dd6575f5ffd5b610de28b828c01610c23565b90955093505060608901356001600160401b03811115610e00575f5ffd5b610e0c8b828c01610c23565b999c989b5096995094979396929594505050565b5f60208284031215610e30575f5ffd5b5035919050565b634e487b7160e01b5f52604160045260245ffd5b5f82601f830112610e5a575f5ffd5b81356001600160401b03811115610e7357610e73610e37565b604051601f8201601f19908116603f011681016001600160401b0381118282101715610ea157610ea1610e37565b604052818152838201602001851015610eb8575f5ffd5b816020850160208301375f918101602001919091529392505050565b5f60208284031215610ee4575f5ffd5b81356001600160401b03811115610ef9575f5ffd5b610f0584828501610e4b565b949350505050565b6001600160a01b03841681526060602082018190525f90610f3090830185610d0f565b90508215156040830152949350505050565b5f5f5f5f5f60608688031215610f56575f5ffd5b85356001600160401b03811115610f6b575f5ffd5b610f7788828901610c23565b90965094505060208601356001600160a01b0381168114610f96575f5ffd5b925060408601356001600160401b03811115610fb0575f5ffd5b610fbc88828901610c23565b969995985093965092949392505050565b5f5f60408385031215610fde575f5ffd5b8235915060208301356001600160401b03811115610ffa575f5ffd5b61100685828601610e4b565b9150509250929050565b818382375f9101908152919050565b600181811c9082168061103357607f821691505b60208210810361105157634e487b7160e01b5f52602260045260245ffd5b50919050565b694973737565436c61696d60b01b81528789600a8301375f888201600a81015f8152888a8237505f908801600a019081528587823760609490941b6bffffffffffffffffffffffff1916939094019283525060148201526034019695505050505050565b601f82111561110257805f5260205f20601f840160051c810160208510156110e05750805b601f840160051c820191505b818110156110ff575f81556001016110ec565b50505b505050565b6001600160401b0383111561111e5761111e610e37565b6111328361112c835461101f565b836110bb565b5f601f841160018114611163575f851561114c5750838201355b5f19600387901b1c1916600186901b1783556110ff565b5f83815260208120601f198716915b828110156111925786850135825560209485019460019092019101611172565b50868210156111ae575f1960f88860031b161c19848701351681555b505060018560011b0183555050505050565b8082018082111561027357634e487b7160e01b5f52601160045260245ffd5b81835281816020850137505f828201602090810191909152601f909101601f19169091010190565b606081525f61121a60608301888a6111df565b828103602084015261122d8187896111df565b905082810360408401526112428185876111df565b9998505050505050505050565b81516001600160401b0381111561126857611268610e37565b61127c81611276845461101f565b846110bb565b6020601f8211600181146112ae575f83156112975750848201515b5f19600385901b1c1916600184901b1784556110ff565b5f84815260208120601f198516915b828110156112dd57878501518255602094850194600190920191016112bd565b50848210156112fa57868401515f19600387901b60f8161c191681555b50505050600190811b01905550565b602081525f610f056020830184866111df565b672932b3b4b9ba32b960c11b81528385600883013760609290921b6bffffffffffffffffffffffff191660089390920192830191909152601c820152603c0191905056fea2646970667358221220ca18e2b9a5fd54829a041e2d5530a0b6431c258cf1bebf870a60654e3c6990ce64736f6c634300081c0033",
  "linkReferences": {},
  "deployedLinkReferences": {},
  "immutableReferences": {},
  "inputSourceName": "project/contracts/CredentialRegistry.sol",
  "buildInfoId": "solc-0_8_28-e0f4222c1eefd45fea8288bbb2ea72738af73c3f"
}