{
  "_format": "hh3-artifact-1",
  "contractName": "ProofOfMe",
  "sourceName": "contracts/ProofOfMe.sol",
  "abi": [
    {
      "inputs": [
        {
          "internalType": "address",
          "name": "_filecoinContract",
          "type": "address"
        }
      ],
      "stateMutability": "nonpayable",
      "type": "constructor"
    },
    {
      "inputs": [
        {
          "internalType": "bytes32",
          "name": "node",
          "type": "bytes32"
        }
      ],
      "name": "DIDAlreadyExists",
      "type": "error"
    },
    {
      "inputs": [
        {
          "internalType": "bytes32",
          "name": "node",
          "type": "bytes32"
        }
      ],
      "name": "DIDNotRegistered",
      "type": "error"
    },
    {
      "inputs": [],
      "name": "EmptyENSName",
      "type": "error"
    },
    {
      "inputs": [
        {
          "internalType": "bytes32",
          "name": "node",
          "type": "bytes32"
        },
        {
          "internalType": "address",
          "name": "caller",
          "type": "address"
        }
      ],
      "name": "NotENSOwner",
      "type": "error"
    },
    {
      "inputs": [
        {
          "internalType": "bytes32",
          "name": "node",
          "type": "bytes32"
        }
      ],
      "name": "ResolverNotFound",
      "type": "error"
    },
    {
      "anonymous": false,
      "inputs": [
        {
          "indexed": true,
          "internalType": "bytes32",
          "name": "node",
          "type": "bytes32"
        },
        {
          "indexed": true,
          "internalType": "string",
          "name": "ensName",
          "type": "string"
        },
        {
          "indexed": true,
          "internalType": "bytes32",
          "name": "messageHash",
          "type": "bytes32"
        },
        {
          "indexed": false,
          "internalType": "address",
          "name": "claimer",
          "type": "address"
        }
      ],
      "name": "ClaimMessageGenerated",
      "type": "event"
    },
    {
      "anonymous": false,
      "inputs": [
        {
          "indexed": true,
          "internalType": "bytes32",
          "name": "node",
          "type": "bytes32"
        },
        {
          "indexed": true,
          "internalType": "string",
          "name": "ensName",
          "type": "string"
        },
        {
          "indexed": false,
          "internalType": "string",
          "name": "didRecord",
          "type": "string"
        },
        {
          "indexed": true,
          "internalType": "address",
          "name": "claimer",
          "type": "address"
        }
      ],
      "name": "DIDClaimed",
      "type": "event"
    },
    {
      "inputs": [],
      "name": "CHAIN_ID",
      "outputs": [
        {
          "internalType": "uint256",
          "name": "",
          "type": "uint256"
        }
      ],
      "stateMutability": "view",
      "type": "function"
    },
    {
      "inputs": [],
      "name": "ENS_REGISTRY",
      "outputs": [
        {
          "internalType": "contract IENS",
          "name": "",
          "type": "address"
        }
      ],
      "stateMutability": "view",
      "type": "function"
    },
    {
      "inputs": [],
      "name": "FILECOIN_CONTRACT",
      "outputs": [
        {
          "internalType": "address",
          "name": "",
          "type": "address"
        }
      ],
      "stateMutability": "view",
      "type": "function"
    },
    {
      "inputs": [],
      "name": "PROOFOFME_KEY",
      "outputs": [
        {
          "internalType": "string",
          "name": "",
          "type": "string"
        }
      ],
      "stateMutability": "view",
      "type": "function"
    },
    {
      "inputs": [
        {
          "internalType": "string",
          "name": "ensName",
          "type": "string"
        },
        {
          "internalType": "string",
          "name": "cid",
          "type": "string"
        },
        {
          "internalType": "string",
          "name": "credentialName",
          "type": "string"
        }
      ],
      "name": "generateClaimMessage",
      "outputs": [
        {
          "internalType": "bytes32",
          "name": "messageHash",
          "type": "bytes32"
        }
      ],
      "stateMutability": "view",
      "type": "function"
    },
    {
      "inputs": [
        {
          "internalType": "string",
          "name": "ensName",
          "type": "string"
        }
      ],
      "name": "generateRegistrationMessage",
      "outputs": [
        {
          "internalType": "bytes32",
          "name": "messageHash",
          "type": "bytes32"
        }
      ],
      "stateMutability": "view",
      "type": "function"
    },
    {
      "inputs": [
        {
          "internalType": "string",
          "name": "ensName",
          "type": "string"
        }
      ],
      "name": "getDID",
      "outputs": [
        {
          "internalType": "string",
          "name": "",
          "type": "string"
        }
      ],
      "stateMutability": "view",
      "type": "function"
    },
    {
      "inputs": [
        {
          "internalType": "string",
          "name": "name",
          "type": "string"
        }
      ],
      "name": "getNamehash",
      "outputs": [
        {
          "internalType": "bytes32",
          "name": "",
          "type": "bytes32"
        }
      ],
      "stateMutability": "pure",
      "type": "function"
    },
    {
      "inputs": [
        {
          "internalType": "string",
          "name": "ensName",
          "type": "string"
        }
      ],
      "name": "hasDID",
      "outputs": [
        {
          "internalType": "bool",
          "name": "",
          "type": "bool"
        }
      ],
      "stateMutability": "view",
      "type": "function"
    },
    {
      "inputs": [
        {
          "internalType": "string",
          "name": "ensName",
          "type": "string"
        }
      ],
      "name": "registerDID",
      "outputs": [
        {
          "internalType": "bytes32",
          "name": "messageHash",
          "type": "bytes32"
        }
      ],
      "stateMutability": "nonpayable",
      "type": "function"
    }
  ],
  "bytecode": "0x60a060405234801561000f575f5ffd5b506040516114b83803806114b883398101604081905261002e916100a3565b6001600160a01b0381166100925760405162461bcd60e51b815260206004820152602160248201527f496e76616c69642046696c65636f696e20636f6e7472616374206164647265736044820152607360f81b606482015260840160405180910390fd5b6001600160a01b03166080526100d0565b5f602082840312156100b3575f5ffd5b81516001600160a01b03811681146100c9575f5ffd5b9392505050565b6080516113c36100f55f395f818160ca015281816103580152610b0701526113c35ff3fe608060405234801561000f575f5ffd5b506004361061009b575f3560e01c80638fcd6af7116100635780638fcd6af7146101355780639a2a780c146101735780639c6e820c14610196578063a91ba15d146101a9578063e0783898146101bc575f5ffd5b8063043dee8c1461009f57806318311cf6146100c5578063570810e21461010457806385e1f4d01461011757806385e969171461011f575b5f5ffd5b6100b26100ad366004610f82565b6101cf565b6040519081526020015b60405180910390f35b6100ec7f000000000000000000000000000000000000000000000000000000000000000081565b6040516001600160a01b0390911681526020016100bc565b6100b2610112366004611021565b6103b0565b6100b2600181565b6100ec6e0c2e074ec69a0dfb2997ba6c7d2e1e81565b6101666040518060400160405280601281526020017170726f6f666f666d653a726567697374727960701b81525081565b6040516100bc919061108e565b610186610181366004611021565b6107c1565b60405190151581526020016100bc565b6100b26101a4366004611021565b610941565b6100b26101b7366004611021565b610987565b6101666101ca366004611021565b610b57565b5f8581036101f05760405163133d0ae160e11b815260040160405180910390fd5b5f61022f88888080601f0160208091040260200160405190810160405280939291908181526020018383808284375f92019190915250610cef92505050565b6040516302571be360e01b81526004810182905290915033906e0c2e074ec69a0dfb2997ba6c7d2e1e906302571be390602401602060405180830381865afa15801561027d573d5f5f3e3d5ffd5b505050506040513d601f19601f820116820180604052508101906102a191906110a0565b6001600160a01b0316146102d65760405163fc88b8a560e01b8152600481018290523360248201526044015b60405180910390fd5b6102e088886107c1565b61030057604051631e5fdc7f60e21b8152600481018290526024016102cd565b5f6040518060400160405280601281526020017170726f6f666f666d653a726567697374727960701b8152508989604051602001610340939291906110dd565b604051602081830303815290604052905080878787877f000000000000000000000000000000000000000000000000000000000000000060405160200161038c969594939291906110fb565b60405160208183030381529060405280519060200120925050509695505050505050565b5f8181036103d15760405163133d0ae160e11b815260040160405180910390fd5b5f61041084848080601f0160208091040260200160405190810160405280939291908181526020018383808284375f92019190915250610cef92505050565b6040516302571be360e01b81526004810182905290915033906e0c2e074ec69a0dfb2997ba6c7d2e1e906302571be390602401602060405180830381865afa15801561045e573d5f5f3e3d5ffd5b505050506040513d601f19601f8201168201806040525081019061048291906110a0565b6001600160a01b0316146104b25760405163fc88b8a560e01b8152600481018290523360248201526044016102cd565b604051630178b8bf60e01b8152600481018290525f906e0c2e074ec69a0dfb2997ba6c7d2e1e90630178b8bf90602401602060405180830381865afa1580156104fd573d5f5f3e3d5ffd5b505050506040513d601f19601f8201168201806040525081019061052191906110a0565b90506001600160a01b03811661054d57604051637b45e0f560e11b8152600481018390526024016102cd565b604080518082018252601281527170726f6f666f666d653a726567697374727960701b60208201529051631674750f60e21b815282915f916001600160a01b038416916359d1d43c916105a4918891600401611151565b5f60405180830381865afa1580156105be573d5f5f3e3d5ffd5b505050506040513d5f823e601f3d908101601f191682016040526105e59190810190611185565b80519091501561060b5760405163362e30d160e11b8152600481018590526024016102cd565b5f878760405160200161061f929190611238565b60408051601f198184030181528282018252601283527170726f6f666f666d653a726567697374727960701b6020840152905163043c4ea360e21b81529092506001600160a01b038516916310f13a8c916106809189918690600401611257565b5f604051808303815f87803b158015610697575f5ffd5b505af11580156106a9573d5f5f3e3d5ffd5b50506040513392506106bf91508a908a90611281565b6040518091039020867f244623a90fd1038097e6b9a9f9a0cb991bcefde21f72d86553a6642a282b98fa846040516106f7919061108e565b60405180910390a460405163a91ba15d60e01b81525f90309063a91ba15d90610726908c908c90600401611290565b602060405180830381865afa158015610741573d5f5f3e3d5ffd5b505050506040513d601f19601f8201168201806040525081019061076591906112be565b9050808989604051610778929190611281565b6040519081900381203382529088907fe097fb6d10bca59f39bf6367f2a6dbd804746832c503c03d5dc29f636367adac9060200160405180910390a45050505050505b92915050565b5f8181036107d057505f6107bb565b5f61080f84848080601f0160208091040260200160405190810160405280939291908181526020018383808284375f92019190915250610cef92505050565b604051630178b8bf60e01b8152600481018290529091505f906e0c2e074ec69a0dfb2997ba6c7d2e1e90630178b8bf90602401602060405180830381865afa15801561085d573d5f5f3e3d5ffd5b505050506040513d601f19601f8201168201806040525081019061088191906110a0565b90506001600160a01b03811661089b575f925050506107bb565b604080518082018252601281527170726f6f666f666d653a726567697374727960701b60208201529051631674750f60e21b815282915f916001600160a01b038416916359d1d43c916108f2918891600401611151565b5f60405180830381865afa15801561090c573d5f5f3e3d5ffd5b505050506040513d5f823e601f3d908101601f191682016040526109339190810190611185565b511515979650505050505050565b5f61098083838080601f0160208091040260200160405190810160405280939291908181526020018383808284375f92019190915250610cef92505050565b9392505050565b5f8181036109a85760405163133d0ae160e11b815260040160405180910390fd5b5f6109e784848080601f0160208091040260200160405190810160405280939291908181526020018383808284375f92019190915250610cef92505050565b6040516302571be360e01b81526004810182905290915033906e0c2e074ec69a0dfb2997ba6c7d2e1e906302571be390602401602060405180830381865afa158015610a35573d5f5f3e3d5ffd5b505050506040513d601f19601f82011682018060405250810190610a5991906110a0565b6001600160a01b031614610a895760405163fc88b8a560e01b8152600481018290523360248201526044016102cd565b610a9384846107c1565b610ab357604051631e5fdc7f60e21b8152600481018290526024016102cd565b5f6040518060400160405280601281526020017170726f6f666f666d653a726567697374727960701b8152508585604051602001610af3939291906110dd565b6040516020818303038152906040529050807f0000000000000000000000000000000000000000000000000000000000000000604051602001610b379291906112d5565b604051602081830303815290604052805190602001209250505092915050565b60605f829003610b75575060408051602081019091525f81526107bb565b5f610bb484848080601f0160208091040260200160405190810160405280939291908181526020018383808284375f92019190915250610cef92505050565b604051630178b8bf60e01b8152600481018290529091505f906e0c2e074ec69a0dfb2997ba6c7d2e1e90630178b8bf90602401602060405180830381865afa158015610c02573d5f5f3e3d5ffd5b505050506040513d601f19601f82011682018060405250810190610c2691906110a0565b90506001600160a01b038116610c4e5760405180602001604052805f815250925050506107bb565b604080518082018252601281527170726f6f666f666d653a726567697374727960701b60208201529051631674750f60e21b815282916001600160a01b038316916359d1d43c91610ca491879190600401611151565b5f60405180830381865afa158015610cbe573d5f5f3e3d5ffd5b505050506040513d5f823e601f3d908101601f19168201604052610ce59190810190611185565b9695505050505050565b80515f9081908103610d015792915050565b825160408051600a80825261016082019092528592915f919060208201610140803683370190505090505f82805b8015610ebd5785610d41600183611326565b81518110610d5157610d51611339565b6020910101516001600160f81b031916601760f91b1480610d725750806001145b15610eab575f86610d84600184611326565b81518110610d9457610d94611339565b6020910101516001600160f81b031916601760f91b14610db4575f610db6565b815b90505f610dc38285611326565b90508015610ea7575f8167ffffffffffffffff811115610de557610de5611171565b6040519080825280601f01601f191660200182016040528015610e0f576020820181803683370190505b5090505f5b82811015610e725789610e27828661134d565b81518110610e3757610e37611339565b602001015160f81c60f81b828281518110610e5457610e54611339565b60200101906001600160f81b03191690815f1a905350600101610e14565b508080519060200120878781518110610e8d57610e8d611339565b602090810291909101015285610ea281611360565b965050505b5091505b80610eb581611378565b915050610d2f565b50815b8015610f30578684610ed3600184611326565b81518110610ee357610ee3611339565b6020026020010151604051602001610f05929190918252602082015260400190565b6040516020818303038152906040528051906020012096508080610f2890611378565b915050610ec0565b5094979650505050505050565b5f5f83601f840112610f4d575f5ffd5b50813567ffffffffffffffff811115610f64575f5ffd5b602083019150836020828501011115610f7b575f5ffd5b9250929050565b5f5f5f5f5f5f60608789031215610f97575f5ffd5b863567ffffffffffffffff811115610fad575f5ffd5b610fb989828a01610f3d565b909750955050602087013567ffffffffffffffff811115610fd8575f5ffd5b610fe489828a01610f3d565b909550935050604087013567ffffffffffffffff811115611003575f5ffd5b61100f89828a01610f3d565b979a9699509497509295939492505050565b5f5f60208385031215611032575f5ffd5b823567ffffffffffffffff811115611048575f5ffd5b61105485828601610f3d565b90969095509350505050565b5f81518084528060208401602086015e5f602082860101526020601f19601f83011685010191505092915050565b602081525f6109806020830184611060565b5f602082840312156110b0575f5ffd5b81516001600160a01b0381168114610980575f5ffd5b5f81518060208401855e5f93019283525090919050565b5f6110e882866110c6565b838582375f930192835250909392505050565b694973737565436c61696d60b01b81525f611119600a8301896110c6565b868882375f9087019081528486823760609390931b6bffffffffffffffffffffffff1916929093019182525060140195945050505050565b828152604060208201525f6111696040830184611060565b949350505050565b634e487b7160e01b5f52604160045260245ffd5b5f60208284031215611195575f5ffd5b815167ffffffffffffffff8111156111ab575f5ffd5b8201601f810184136111bb575f5ffd5b805167ffffffffffffffff8111156111d5576111d5611171565b604051601f8201601f19908116603f0116810167ffffffffffffffff8111828210171561120457611204611171565b60405281815282820160200186101561121b575f5ffd5b8160208401602083015e5f91810160200191909152949350505050565b633234b21d60e11b8152818360048301375f9101600401908152919050565b838152606060208201525f61126f6060830185611060565b8281036040840152610ce58185611060565b818382375f9101908152919050565b60208152816020820152818360408301375f818301604090810191909152601f909201601f19160101919050565b5f602082840312156112ce575f5ffd5b5051919050565b672932b3b4b9ba32b960c11b81525f6112f160088301856110c6565b60609390931b6bffffffffffffffffffffffff191683525050601401919050565b634e487b7160e01b5f52601160045260245ffd5b818103818111156107bb576107bb611312565b634e487b7160e01b5f52603260045260245ffd5b808201808211156107bb576107bb611312565b5f6001820161137157611371611312565b5060010190565b5f8161138657611386611312565b505f19019056fea264697066735822122001b3969766a373144acc41b2304413ab340e1d2ab8751e98b4d0f0c0397911e564736f6c634300081c0033",
  "linkReferences": {},
  "deployedLinkReferences": {},
  "immutableReferences": {
    "54": [
      {
        "length": 32,
        "start": 202
      },
      {
        "length": 32,
        "start": 856
      },
      {
        "length": 32,
        "start": 2823
      }
    ]
  },
  "inputSourceName": "project/contracts/ProofOfMe.sol",
  "buildInfoId": "solc-0_8_28-edbe58f470ce7331f073fab15be27afe587958c9"
}