{
  "_format": "hh3-artifact-1",
  "contractName": "CredentialRegistry",
  "sourceName": "contracts/CredentialRegistry.sol",
  "abi": [
    {
      "inputs": [],
      "name": "CredentialTypeAlreadyExists",
      "type": "error"
    },
    {
      "inputs": [],
      "name": "CredentialTypeNotExists",
      "type": "error"
    },
    {
      "inputs": [],
      "name": "DIDAlreadyRegistered",
      "type": "error"
    },
    {
      "inputs": [],
      "name": "DIDNotRegistered",
      "type": "error"
    },
    {
      "inputs": [],
      "name": "EmptyCID",
      "type": "error"
    },
    {
      "inputs": [],
      "name": "EmptyCredentialType",
      "type": "error"
    },
    {
      "inputs": [],
      "name": "EmptyDID",
      "type": "error"
    },
    {
      "inputs": [],
      "name": "Unauthorized",
      "type": "error"
    },
    {
      "anonymous": false,
      "inputs": [
        {
          "indexed": true,
          "internalType": "bytes32",
          "name": "didHash",
          "type": "bytes32"
        },
        {
          "indexed": false,
          "internalType": "string",
          "name": "did",
          "type": "string"
        },
        {
          "indexed": false,
          "internalType": "string",
          "name": "cid",
          "type": "string"
        },
        {
          "indexed": false,
          "internalType": "string",
          "name": "credentialType",
          "type": "string"
        },
        {
          "indexed": true,
          "internalType": "address",
          "name": "submitter",
          "type": "address"
        }
      ],
      "name": "ClaimIssued",
      "type": "event"
    },
    {
      "anonymous": false,
      "inputs": [
        {
          "indexed": true,
          "internalType": "string",
          "name": "credentialType",
          "type": "string"
        },
        {
          "indexed": true,
          "internalType": "address",
          "name": "issuer",
          "type": "address"
        },
        {
          "indexed": false,
          "internalType": "string",
          "name": "description",
          "type": "string"
        }
      ],
      "name": "CredentialTypeCreated",
      "type": "event"
    },
    {
      "anonymous": false,
      "inputs": [
        {
          "indexed": true,
          "internalType": "bytes32",
          "name": "didHash",
          "type": "bytes32"
        },
        {
          "indexed": false,
          "internalType": "string",
          "name": "did",
          "type": "string"
        },
        {
          "indexed": true,
          "internalType": "address",
          "name": "ethOwner",
          "type": "address"
        }
      ],
      "name": "DIDRegistered",
      "type": "event"
    },
    {
      "inputs": [
        {
          "internalType": "string",
          "name": "credentialName",
          "type": "string"
        },
        {
          "internalType": "string",
          "name": "description",
          "type": "string"
        }
      ],
      "name": "createCredential",
      "outputs": [],
      "stateMutability": "nonpayable",
      "type": "function"
    },
    {
      "inputs": [
        {
          "internalType": "string",
          "name": "credentialType",
          "type": "string"
        }
      ],
      "name": "credentialExists",
      "outputs": [
        {
          "internalType": "bool",
          "name": "",
          "type": "bool"
        }
      ],
      "stateMutability": "view",
      "type": "function"
    },
    {
      "inputs": [
        {
          "internalType": "string",
          "name": "",
          "type": "string"
        }
      ],
      "name": "credentials",
      "outputs": [
        {
          "internalType": "address",
          "name": "issuer",
          "type": "address"
        },
        {
          "internalType": "string",
          "name": "description",
          "type": "string"
        },
        {
          "internalType": "bool",
          "name": "exists",
          "type": "bool"
        }
      ],
      "stateMutability": "view",
      "type": "function"
    },
    {
      "inputs": [
        {
          "internalType": "string",
          "name": "did",
          "type": "string"
        }
      ],
      "name": "didHash",
      "outputs": [
        {
          "internalType": "bytes32",
          "name": "",
          "type": "bytes32"
        }
      ],
      "stateMutability": "pure",
      "type": "function"
    },
    {
      "inputs": [
        {
          "internalType": "bytes32",
          "name": "",
          "type": "bytes32"
        }
      ],
      "name": "ethOwnerOf",
      "outputs": [
        {
          "internalType": "address",
          "name": "",
          "type": "address"
        }
      ],
      "stateMutability": "view",
      "type": "function"
    },
    {
      "inputs": [
        {
          "internalType": "string",
          "name": "did",
          "type": "string"
        },
        {
          "internalType": "string",
          "name": "credentialType",
          "type": "string"
        }
      ],
      "name": "getClaim",
      "outputs": [
        {
          "internalType": "string",
          "name": "",
          "type": "string"
        }
      ],
      "stateMutability": "view",
      "type": "function"
    },
    {
      "inputs": [
        {
          "internalType": "string",
          "name": "did",
          "type": "string"
        }
      ],
      "name": "isDIDRegistered",
      "outputs": [
        {
          "internalType": "bool",
          "name": "",
          "type": "bool"
        }
      ],
      "stateMutability": "view",
      "type": "function"
    },
    {
      "inputs": [
        {
          "internalType": "bytes32",
          "name": "",
          "type": "bytes32"
        }
      ],
      "name": "isRegistered",
      "outputs": [
        {
          "internalType": "bool",
          "name": "",
          "type": "bool"
        }
      ],
      "stateMutability": "view",
      "type": "function"
    },
    {
      "inputs": [
        {
          "internalType": "string",
          "name": "did",
          "type": "string"
        },
        {
          "internalType": "string",
          "name": "cid",
          "type": "string"
        },
        {
          "internalType": "string",
          "name": "credentialType",
          "type": "string"
        },
        {
          "internalType": "bytes",
          "name": "sig",
          "type": "bytes"
        }
      ],
      "name": "issueClaim",
      "outputs": [],
      "stateMutability": "nonpayable",
      "type": "function"
    },
    {
      "inputs": [
        {
          "internalType": "bytes32",
          "name": "",
          "type": "bytes32"
        },
        {
          "internalType": "string",
          "name": "",
          "type": "string"
        }
      ],
      "name": "latestClaim",
      "outputs": [
        {
          "internalType": "string",
          "name": "",
          "type": "string"
        }
      ],
      "stateMutability": "view",
      "type": "function"
    },
    {
      "inputs": [
        {
          "internalType": "string",
          "name": "did",
          "type": "string"
        },
        {
          "internalType": "address",
          "name": "expectedEthOwner",
          "type": "address"
        },
        {
          "internalType": "bytes",
          "name": "sig",
          "type": "bytes"
        }
      ],
      "name": "registerDID",
      "outputs": [],
      "stateMutability": "nonpayable",
      "type": "function"
    }
  ],
  "bytecode": "0x6080604052348015600e575f5ffd5b5061128e8061001c5f395ff3fe608060405234801561000f575f5ffd5b50600436106100a6575f3560e01c8063557cc7151161006e578063557cc7151461013c5780637199a82f1461015d578063bf4af9b114610170578063c056290514610192578063c9b3a60a146101d2578063ff83e1a5146101e5575f5ffd5b80631de3f1dc146100aa5780631f547939146100d25780631fdfa5d5146100f257806327258b22146101075780634e7692bb14610129575b5f5ffd5b6100bd6100b8366004610b88565b6101f8565b60405190151581526020015b60405180910390f35b6100e56100e0366004610bc6565b610220565b6040516100c99190610c5e565b610105610100366004610c77565b6102eb565b005b6100bd610115366004610d41565b60016020525f908152604090205460ff1681565b6100bd610137366004610b88565b610533565b61014f61014a366004610b88565b610564565b6040519081526020016100c9565b61010561016b366004610bc6565b610596565b61018361017e366004610df5565b61071c565b6040516100c993929190610e2e565b6101ba6101a0366004610d41565b5f602081905290815260409020546001600160a01b031681565b6040516001600160a01b0390911681526020016100c9565b6101056101e0366004610e63565b6107dd565b6100e56101f3366004610eee565b610960565b5f60015f6102068585610564565b815260208101919091526040015f205460ff169392505050565b606060035f61022f8787610564565b81526020019081526020015f20838360405161024c929190610f31565b9081526020016040518091039020805461026590610f40565b80601f016020809104026020016040519081016040528092919081815260200182805461029190610f40565b80156102dc5780601f106102b3576101008083540402835291602001916102dc565b820191905f5260205f20905b8154815290600101906020018083116102bf57829003601f168201915b50505050509050949350505050565b5f87900361030c57604051632abd438960e21b815260040160405180910390fd5b5f85900361032d5760405163063ee91d60e41b815260040160405180910390fd5b5f83900361034e5760405163bc34f91b60e01b815260040160405180910390fd5b5f6103598989610564565b5f818152602081905260409020549091506001600160a01b031680158061038e57505f8281526001602052604090205460ff16155b156103ac5760405163361a273360e01b815260040160405180910390fd5b600286866040516103be929190610f31565b9081526040519081900360200190206002015460ff166103f15760405163eb91d57b60e01b815260040160405180910390fd5b5f8a8a8a8a8a8a3060405160200161040f9796959493929190610f78565b6040516020818303038152906040528051906020012090505f6104678287878080601f0160208091040260200160405190810160405280939291908181526020018383808284375f92019190915250610a1392505050565b9050826001600160a01b0316816001600160a01b03161461049a576040516282b42960e81b815260040160405180910390fd5b898960035f8781526020019081526020015f208a8a6040516104bd929190610f31565b908152602001604051809103902091826104d8929190611023565b50336001600160a01b0316847f46d1cb41745c409d09bbf7cfdbbf0926c0f713786e7b5e605f9d8d62479c5b768e8e8e8e8e8e60405161051d96959493929190611104565b60405180910390a3505050505050505050505050565b5f60028383604051610546929190610f31565b9081526040519081900360200190206002015460ff16905092915050565b5f8282604051602001610578929190610f31565b60405160208183030381529060405280519060200120905092915050565b5f8390036105b75760405163bc34f91b60e01b815260040160405180910390fd5b600284846040516105c9929190610f31565b9081526040519081900360200190206002015460ff16156105fd576040516374dec29760e01b815260040160405180910390fd5b6040518060600160405280336001600160a01b0316815260200183838080601f0160208091040260200160405190810160405280939291908181526020018383808284375f92019190915250505090825250600160209091015260405160029061066a9087908790610f31565b90815260405160209181900382019020825181546001600160a01b0319166001600160a01b039091161781559082015160018201906106a9908261114c565b50604091820151600291909101805460ff19169115159190911790555133906106d59086908690610f31565b60405180910390207f5f2736fce2adcf23991cae5493c141d9d079493ed117d9e7be1df807787fe567848460405161070e929190611206565b60405180910390a350505050565b8051602081830181018051600282529282019190930120915280546001820180546001600160a01b03909216929161075390610f40565b80601f016020809104026020016040519081016040528092919081815260200182805461077f90610f40565b80156107ca5780601f106107a1576101008083540402835291602001916107ca565b820191905f5260205f20905b8154815290600101906020018083116107ad57829003601f168201915b5050506002909301549192505060ff1683565b5f8490036107fe57604051632abd438960e21b815260040160405180910390fd5b5f6108098686610564565b5f8181526001602052604090205490915060ff161561083b5760405163ca2f36c360e01b815260040160405180910390fd5b5f86863060405160200161085193929190611219565b6040516020818303038152906040528051906020012090505f6108a98286868080601f0160208091040260200160405190810160405280939291908181526020018383808284375f92019190915250610a1392505050565b9050856001600160a01b0316816001600160a01b0316146108dc576040516282b42960e81b815260040160405180910390fd5b5f8381526020818152604080832080546001600160a01b0319166001600160a01b038b1690811790915560019283905292819020805460ff19169092179091555184907fc53c07fb641c4cc0270d682bc95e6ae470f8feb8e4a2c06c56c3074bf3127ada9061094e908c908c90611206565b60405180910390a35050505050505050565b600360209081525f928352604090922081518083018401805192815290840192909301919091209152805461099490610f40565b80601f01602080910402602001604051908101604052809291908181526020018280546109c090610f40565b8015610a0b5780601f106109e257610100808354040283529160200191610a0b565b820191905f5260205f20905b8154815290600101906020018083116109ee57829003601f168201915b505050505081565b6040517f19457468657265756d205369676e6564204d6573736167653a0a3332000000006020820152603c81018390525f908190605c016040516020818303038152906040528051906020012090505f5f5f610a6e86610adc565b604080515f81526020810180835289905260ff8516918101919091526060810183905260808101829052929550909350915060019060a0016020604051602081039080840390855afa158015610ac6573d5f5f3e3d5ffd5b5050604051601f19015198975050505050505050565b5f5f5f8351604114610b295760405162461bcd60e51b81526020600482015260126024820152710d2dcecc2d8d2c840e6d2ce40d8cadccee8d60731b604482015260640160405180910390fd5b505050602081015160408201516060909201515f1a92909190565b5f5f83601f840112610b54575f5ffd5b5081356001600160401b03811115610b6a575f5ffd5b602083019150836020828501011115610b81575f5ffd5b9250929050565b5f5f60208385031215610b99575f5ffd5b82356001600160401b03811115610bae575f5ffd5b610bba85828601610b44565b90969095509350505050565b5f5f5f5f60408587031215610bd9575f5ffd5b84356001600160401b03811115610bee575f5ffd5b610bfa87828801610b44565b90955093505060208501356001600160401b03811115610c18575f5ffd5b610c2487828801610b44565b95989497509550505050565b5f81518084528060208401602086015e5f602082860101526020601f19601f83011685010191505092915050565b602081525f610c706020830184610c30565b9392505050565b5f5f5f5f5f5f5f5f6080898b031215610c8e575f5ffd5b88356001600160401b03811115610ca3575f5ffd5b610caf8b828c01610b44565b90995097505060208901356001600160401b03811115610ccd575f5ffd5b610cd98b828c01610b44565b90975095505060408901356001600160401b03811115610cf7575f5ffd5b610d038b828c01610b44565b90955093505060608901356001600160401b03811115610d21575f5ffd5b610d2d8b828c01610b44565b999c989b5096995094979396929594505050565b5f60208284031215610d51575f5ffd5b5035919050565b634e487b7160e01b5f52604160045260245ffd5b5f82601f830112610d7b575f5ffd5b81356001600160401b03811115610d9457610d94610d58565b604051601f8201601f19908116603f011681016001600160401b0381118282101715610dc257610dc2610d58565b604052818152838201602001851015610dd9575f5ffd5b816020850160208301375f918101602001919091529392505050565b5f60208284031215610e05575f5ffd5b81356001600160401b03811115610e1a575f5ffd5b610e2684828501610d6c565b949350505050565b6001600160a01b03841681526060602082018190525f90610e5190830185610c30565b90508215156040830152949350505050565b5f5f5f5f5f60608688031215610e77575f5ffd5b85356001600160401b03811115610e8c575f5ffd5b610e9888828901610b44565b90965094505060208601356001600160a01b0381168114610eb7575f5ffd5b925060408601356001600160401b03811115610ed1575f5ffd5b610edd88828901610b44565b969995985093965092949392505050565b5f5f60408385031215610eff575f5ffd5b8235915060208301356001600160401b03811115610f1b575f5ffd5b610f2785828601610d6c565b9150509250929050565b818382375f9101908152919050565b600181811c90821680610f5457607f821691505b602082108103610f7257634e487b7160e01b5f52602260045260245ffd5b50919050565b694973737565436c61696d60b01b81528688600a8301375f878201600a81015f815287898237505f908701600a019081528486823760609390931b6bffffffffffffffffffffffff191692909301918252506014019695505050505050565b601f82111561101e57805f5260205f20601f840160051c81016020851015610ffc5750805b601f840160051c820191505b8181101561101b575f8155600101611008565b50505b505050565b6001600160401b0383111561103a5761103a610d58565b61104e836110488354610f40565b83610fd7565b5f601f84116001811461107f575f85156110685750838201355b5f19600387901b1c1916600186901b17835561101b565b5f83815260208120601f198716915b828110156110ae578685013582556020948501946001909201910161108e565b50868210156110ca575f1960f88860031b161c19848701351681555b505060018560011b0183555050505050565b81835281816020850137505f828201602090810191909152601f909101601f19169091010190565b606081525f61111760608301888a6110dc565b828103602084015261112a8187896110dc565b9050828103604084015261113f8185876110dc565b9998505050505050505050565b81516001600160401b0381111561116557611165610d58565b611179816111738454610f40565b84610fd7565b6020601f8211600181146111ab575f83156111945750848201515b5f19600385901b1c1916600184901b17845561101b565b5f84815260208120601f198516915b828110156111da57878501518255602094850194600190920191016111ba565b50848210156111f757868401515f19600387901b60f8161c191681555b50505050600190811b01905550565b602081525f610e266020830184866110dc565b672932b3b4b9ba32b960c11b81528284600883013760609190911b6bffffffffffffffffffffffff191660089190920190810191909152601c0191905056fea2646970667358221220edd124a373ba6d33ee98cf30f44ea35853a14bc3a7e5d3551b0a3945385fec8264736f6c634300081c0033",
  "linkReferences": {},
  "deployedLinkReferences": {},
  "immutableReferences": {},
  "inputSourceName": "project/contracts/CredentialRegistry.sol",
  "buildInfoId": "solc-0_8_28-22d901a4fc52a186f7bb8258cd7056a39e106eda"
}