{
  "_format": "hh3-artifact-1",
  "contractName": "ProofOfMe",
  "sourceName": "contracts/ProofOfMe.sol",
  "abi": [
    {
      "inputs": [
        {
          "internalType": "bytes32",
          "name": "_parentNode",
          "type": "bytes32"
        },
        {
          "internalType": "string",
          "name": "_parentDomain",
          "type": "string"
        }
      ],
      "stateMutability": "nonpayable",
      "type": "constructor"
    },
    {
      "inputs": [],
      "name": "CredentialTypeAlreadyExists",
      "type": "error"
    },
    {
      "inputs": [],
      "name": "CredentialTypeNotExists",
      "type": "error"
    },
    {
      "inputs": [],
      "name": "DIDAlreadyRegistered",
      "type": "error"
    },
    {
      "inputs": [],
      "name": "DIDNotRegistered",
      "type": "error"
    },
    {
      "inputs": [],
      "name": "EmptyCID",
      "type": "error"
    },
    {
      "inputs": [],
      "name": "EmptyCredentialType",
      "type": "error"
    },
    {
      "inputs": [],
      "name": "EmptyDID",
      "type": "error"
    },
    {
      "inputs": [],
      "name": "EmptySubdomain",
      "type": "error"
    },
    {
      "inputs": [
        {
          "internalType": "bytes32",
          "name": "node",
          "type": "bytes32"
        }
      ],
      "name": "ResolverNotFound",
      "type": "error"
    },
    {
      "inputs": [],
      "name": "SubdomainAlreadyExists",
      "type": "error"
    },
    {
      "inputs": [],
      "name": "Unauthorized",
      "type": "error"
    },
    {
      "anonymous": false,
      "inputs": [
        {
          "indexed": true,
          "internalType": "bytes32",
          "name": "didHash",
          "type": "bytes32"
        },
        {
          "indexed": false,
          "internalType": "string",
          "name": "did",
          "type": "string"
        },
        {
          "indexed": false,
          "internalType": "string",
          "name": "cid",
          "type": "string"
        },
        {
          "indexed": false,
          "internalType": "string",
          "name": "credentialType",
          "type": "string"
        },
        {
          "indexed": true,
          "internalType": "address",
          "name": "submitter",
          "type": "address"
        }
      ],
      "name": "ClaimIssued",
      "type": "event"
    },
    {
      "anonymous": false,
      "inputs": [
        {
          "indexed": true,
          "internalType": "string",
          "name": "credentialType",
          "type": "string"
        },
        {
          "indexed": false,
          "internalType": "string",
          "name": "subdomain",
          "type": "string"
        },
        {
          "indexed": true,
          "internalType": "address",
          "name": "issuer",
          "type": "address"
        },
        {
          "indexed": false,
          "internalType": "string",
          "name": "description",
          "type": "string"
        }
      ],
      "name": "CredentialTypeCreated",
      "type": "event"
    },
    {
      "anonymous": false,
      "inputs": [
        {
          "indexed": true,
          "internalType": "bytes32",
          "name": "didHash",
          "type": "bytes32"
        },
        {
          "indexed": false,
          "internalType": "string",
          "name": "did",
          "type": "string"
        },
        {
          "indexed": true,
          "internalType": "address",
          "name": "ethOwner",
          "type": "address"
        }
      ],
      "name": "DIDRegistered",
      "type": "event"
    },
    {
      "anonymous": false,
      "inputs": [
        {
          "indexed": true,
          "internalType": "bytes32",
          "name": "node",
          "type": "bytes32"
        },
        {
          "indexed": false,
          "internalType": "string",
          "name": "subdomain",
          "type": "string"
        },
        {
          "indexed": true,
          "internalType": "address",
          "name": "issuer",
          "type": "address"
        }
      ],
      "name": "SubdomainCreated",
      "type": "event"
    },
    {
      "inputs": [],
      "name": "ENS_REGISTRY",
      "outputs": [
        {
          "internalType": "contract IENS",
          "name": "",
          "type": "address"
        }
      ],
      "stateMutability": "view",
      "type": "function"
    },
    {
      "inputs": [],
      "name": "PARENT_DOMAIN",
      "outputs": [
        {
          "internalType": "string",
          "name": "",
          "type": "string"
        }
      ],
      "stateMutability": "view",
      "type": "function"
    },
    {
      "inputs": [],
      "name": "PARENT_NODE",
      "outputs": [
        {
          "internalType": "bytes32",
          "name": "",
          "type": "bytes32"
        }
      ],
      "stateMutability": "view",
      "type": "function"
    },
    {
      "inputs": [],
      "name": "PROOFOFME_KEY",
      "outputs": [
        {
          "internalType": "string",
          "name": "",
          "type": "string"
        }
      ],
      "stateMutability": "view",
      "type": "function"
    },
    {
      "inputs": [
        {
          "internalType": "string",
          "name": "credentialType",
          "type": "string"
        },
        {
          "internalType": "string",
          "name": "subdomain",
          "type": "string"
        },
        {
          "internalType": "string",
          "name": "description",
          "type": "string"
        }
      ],
      "name": "createCredentialWithSubdomain",
      "outputs": [],
      "stateMutability": "nonpayable",
      "type": "function"
    },
    {
      "inputs": [
        {
          "internalType": "string",
          "name": "credentialType",
          "type": "string"
        }
      ],
      "name": "credentialExists",
      "outputs": [
        {
          "internalType": "bool",
          "name": "",
          "type": "bool"
        }
      ],
      "stateMutability": "view",
      "type": "function"
    },
    {
      "inputs": [
        {
          "internalType": "string",
          "name": "",
          "type": "string"
        }
      ],
      "name": "credentials",
      "outputs": [
        {
          "internalType": "address",
          "name": "issuer",
          "type": "address"
        },
        {
          "internalType": "string",
          "name": "description",
          "type": "string"
        },
        {
          "internalType": "string",
          "name": "subdomain",
          "type": "string"
        },
        {
          "internalType": "bool",
          "name": "exists",
          "type": "bool"
        }
      ],
      "stateMutability": "view",
      "type": "function"
    },
    {
      "inputs": [
        {
          "internalType": "string",
          "name": "did",
          "type": "string"
        }
      ],
      "name": "didHash",
      "outputs": [
        {
          "internalType": "bytes32",
          "name": "",
          "type": "bytes32"
        }
      ],
      "stateMutability": "pure",
      "type": "function"
    },
    {
      "inputs": [
        {
          "internalType": "bytes32",
          "name": "",
          "type": "bytes32"
        }
      ],
      "name": "ethOwnerOf",
      "outputs": [
        {
          "internalType": "address",
          "name": "",
          "type": "address"
        }
      ],
      "stateMutability": "view",
      "type": "function"
    },
    {
      "inputs": [
        {
          "internalType": "string",
          "name": "did",
          "type": "string"
        },
        {
          "internalType": "string",
          "name": "credentialType",
          "type": "string"
        }
      ],
      "name": "getClaim",
      "outputs": [
        {
          "internalType": "string",
          "name": "",
          "type": "string"
        }
      ],
      "stateMutability": "view",
      "type": "function"
    },
    {
      "inputs": [
        {
          "internalType": "string",
          "name": "subdomain",
          "type": "string"
        }
      ],
      "name": "getCredentialTypeBySubdomain",
      "outputs": [
        {
          "internalType": "string",
          "name": "",
          "type": "string"
        }
      ],
      "stateMutability": "view",
      "type": "function"
    },
    {
      "inputs": [
        {
          "internalType": "string",
          "name": "did",
          "type": "string"
        }
      ],
      "name": "isDIDRegistered",
      "outputs": [
        {
          "internalType": "bool",
          "name": "",
          "type": "bool"
        }
      ],
      "stateMutability": "view",
      "type": "function"
    },
    {
      "inputs": [
        {
          "internalType": "bytes32",
          "name": "",
          "type": "bytes32"
        }
      ],
      "name": "isRegistered",
      "outputs": [
        {
          "internalType": "bool",
          "name": "",
          "type": "bool"
        }
      ],
      "stateMutability": "view",
      "type": "function"
    },
    {
      "inputs": [
        {
          "internalType": "string",
          "name": "did",
          "type": "string"
        },
        {
          "internalType": "string",
          "name": "cid",
          "type": "string"
        },
        {
          "internalType": "string",
          "name": "credentialType",
          "type": "string"
        },
        {
          "internalType": "bytes",
          "name": "sig",
          "type": "bytes"
        }
      ],
      "name": "issueClaim",
      "outputs": [],
      "stateMutability": "nonpayable",
      "type": "function"
    },
    {
      "inputs": [
        {
          "internalType": "bytes32",
          "name": "",
          "type": "bytes32"
        },
        {
          "internalType": "string",
          "name": "",
          "type": "string"
        }
      ],
      "name": "latestClaim",
      "outputs": [
        {
          "internalType": "string",
          "name": "",
          "type": "string"
        }
      ],
      "stateMutability": "view",
      "type": "function"
    },
    {
      "inputs": [],
      "name": "owner",
      "outputs": [
        {
          "internalType": "address",
          "name": "",
          "type": "address"
        }
      ],
      "stateMutability": "view",
      "type": "function"
    },
    {
      "inputs": [
        {
          "internalType": "string",
          "name": "did",
          "type": "string"
        },
        {
          "internalType": "address",
          "name": "expectedEthOwner",
          "type": "address"
        },
        {
          "internalType": "bytes",
          "name": "sig",
          "type": "bytes"
        }
      ],
      "name": "registerDID",
      "outputs": [],
      "stateMutability": "nonpayable",
      "type": "function"
    },
    {
      "inputs": [
        {
          "internalType": "string",
          "name": "",
          "type": "string"
        }
      ],
      "name": "subdomainToCredentialType",
      "outputs": [
        {
          "internalType": "string",
          "name": "",
          "type": "string"
        }
      ],
      "stateMutability": "view",
      "type": "function"
    },
    {
      "inputs": [
        {
          "internalType": "address",
          "name": "newOwner",
          "type": "address"
        }
      ],
      "name": "updateOwner",
      "outputs": [],
      "stateMutability": "nonpayable",
      "type": "function"
    }
  ],
  "bytecode": "0x60a060405234801561000f575f5ffd5b50604051611d80380380611d8083398101604081905261002e9161006c565b60808290525f61003e82826101ab565b5050600180546001600160a01b0319163317905550610265565b634e487b7160e01b5f52604160045260245ffd5b5f5f6040838503121561007d575f5ffd5b825160208401519092506001600160401b0381111561009a575f5ffd5b8301601f810185136100aa575f5ffd5b80516001600160401b038111156100c3576100c3610058565b604051601f8201601f19908116603f011681016001600160401b03811182821017156100f1576100f1610058565b604052818152828201602001871015610108575f5ffd5b8160208401602083015e5f602083830101528093505050509250929050565b600181811c9082168061013b57607f821691505b60208210810361015957634e487b7160e01b5f52602260045260245ffd5b50919050565b601f8211156101a657805f5260205f20601f840160051c810160208510156101845750805b601f840160051c820191505b818110156101a3575f8155600101610190565b50505b505050565b81516001600160401b038111156101c4576101c4610058565b6101d8816101d28454610127565b8461015f565b6020601f82116001811461020a575f83156101f35750848201515b5f19600385901b1c1916600184901b1784556101a3565b5f84815260208120601f198516915b828110156102395787850151825560209485019460019092019101610219565b508482101561025657868401515f19600387901b60f8161c191681555b50505050600190811b01905550565b608051611af561028b5f395f81816101ac01528181610ae40152610bd20152611af55ff3fe608060405234801561000f575f5ffd5b506004361061011c575f3560e01c806385e96917116100a957806392359a731161006e57806392359a73146102ad578063bf4af9b1146102c0578063c0562905146102e3578063c9b3a60a1461030b578063ff83e1a51461031e575f5ffd5b806385e9691714610215578063873d909c14610243578063880cdc31146102565780638da5cb5b146102695780638fcd6af71461027c575f5ffd5b806339041a58116100ef57806339041a581461019f578063421bd052146101a75780634e7692bb146101dc5780635264e3f2146101ef578063557cc71514610202575f5ffd5b80631de3f1dc146101205780631f547939146101485780631fdfa5d51461016857806327258b221461017d575b5f5ffd5b61013361012e3660046112b5565b610331565b60405190151581526020015b60405180910390f35b61015b6101563660046112f3565b610359565b60405161013f919061138b565b61017b6101763660046113a4565b610424565b005b61013361018b36600461146e565b60036020525f908152604090205460ff1681565b61015b6107e3565b6101ce7f000000000000000000000000000000000000000000000000000000000000000081565b60405190815260200161013f565b6101336101ea3660046112b5565b61086e565b61015b6101fd3660046112b5565b61089f565b6101ce6102103660046112b5565b610950565b61022b6e0c2e074ec69a0dfb2997ba6c7d2e1e81565b6040516001600160a01b03909116815260200161013f565b61015b610251366004611522565b610982565b61017b610264366004611572565b6109a6565b60015461022b906001600160a01b031681565b61015b6040518060400160405280601281526020017170726f6f666f666d653a726567697374727960701b81525081565b61017b6102bb36600461158d565b6109f2565b6102d36102ce366004611522565b610e4d565b60405161013f9493929190611629565b61022b6102f136600461146e565b60026020525f90815260409020546001600160a01b031681565b61017b610319366004611672565b610f9a565b61015b61032c3660046116f2565b61110c565b5f60035f61033f8585610950565b815260208101919091526040015f205460ff169392505050565b606060065f6103688787610950565b81526020019081526020015f208383604051610385929190611735565b9081526020016040518091039020805461039e90611744565b80601f01602080910402602001604051908101604052809291908181526020018280546103ca90611744565b80156104155780601f106103ec57610100808354040283529160200191610415565b820191905f5260205f20905b8154815290600101906020018083116103f857829003601f168201915b50505050509050949350505050565b5f87900361044557604051632abd438960e21b815260040160405180910390fd5b5f8590036104665760405163063ee91d60e41b815260040160405180910390fd5b5f8390036104875760405163bc34f91b60e01b815260040160405180910390fd5b5f6104928989610950565b5f818152600260205260409020549091506001600160a01b03168015806104c757505f8281526003602052604090205460ff16155b156104e55760405163361a273360e01b815260040160405180910390fd5b5f600487876040516104f8929190611735565b9081526040805191829003602090810183206080840190925281546001600160a01b031683526001820180549184019161053190611744565b80601f016020809104026020016040519081016040528092919081815260200182805461055d90611744565b80156105a85780601f1061057f576101008083540402835291602001916105a8565b820191905f5260205f20905b81548152906001019060200180831161058b57829003601f168201915b505050505081526020016002820180546105c190611744565b80601f01602080910402602001604051908101604052809291908181526020018280546105ed90611744565b80156106385780601f1061060f57610100808354040283529160200191610638565b820191905f5260205f20905b81548152906001019060200180831161061b57829003601f168201915b50505091835250506003919091015460ff16151560209091015260608101519091506106775760405163eb91d57b60e01b815260040160405180910390fd5b80516001600160a01b031633146106a0576040516282b42960e81b815260040160405180910390fd5b5f8b8b8b8b8b8b306040516020016106be979695949392919061177c565b6040516020818303038152906040528051906020012090505f6107168288888080601f0160208091040260200160405190810160405280939291908181526020018383808284375f9201919091525061114092505050565b9050836001600160a01b0316816001600160a01b031614610749576040516282b42960e81b815260040160405180910390fd5b8a8a60065f8881526020019081526020015f208b8b60405161076c929190611735565b90815260200160405180910390209182610787929190611827565b50336001600160a01b0316857f46d1cb41745c409d09bbf7cfdbbf0926c0f713786e7b5e605f9d8d62479c5b768f8f8f8f8f8f6040516107cc96959493929190611908565b60405180910390a350505050505050505050505050565b5f80546107ef90611744565b80601f016020809104026020016040519081016040528092919081815260200182805461081b90611744565b80156108665780601f1061083d57610100808354040283529160200191610866565b820191905f5260205f20905b81548152906001019060200180831161084957829003601f168201915b505050505081565b5f60048383604051610881929190611735565b9081526040519081900360200190206003015460ff16905092915050565b6060600583836040516108b3929190611735565b908152602001604051809103902080546108cc90611744565b80601f01602080910402602001604051908101604052809291908181526020018280546108f890611744565b80156109435780601f1061091a57610100808354040283529160200191610943565b820191905f5260205f20905b81548152906001019060200180831161092657829003601f168201915b5050505050905092915050565b5f8282604051602001610964929190611735565b60405160208183030381529060405280519060200120905092915050565b8051602081830181018051600582529282019190930120915280546107ef90611744565b6001546001600160a01b031633146109d0576040516282b42960e81b815260040160405180910390fd5b600180546001600160a01b0319166001600160a01b0392909216919091179055565b5f859003610a135760405163bc34f91b60e01b815260040160405180910390fd5b5f839003610a3457604051631152713b60e21b815260040160405180910390fd5b60048686604051610a46929190611735565b9081526040519081900360200190206003015460ff1615610a7a576040516374dec29760e01b815260040160405180910390fd5b5f60058585604051610a8d929190611735565b90815260200160405180910390208054610aa690611744565b90501115610ac7576040516327e3834d60e21b815260040160405180910390fd5b5f8484604051610ad8929190611735565b604080519182900382207f0000000000000000000000000000000000000000000000000000000000000000602084015290820181905291505f9060600160408051808303601f190181529082905280516020909101206302571be360e01b82526004820181905291505f906e0c2e074ec69a0dfb2997ba6c7d2e1e906302571be390602401602060405180830381865afa158015610b78573d5f5f3e3d5ffd5b505050506040513d601f19601f82011682018060405250810190610b9c9190611950565b6001600160a01b031614610bc3576040516327e3834d60e21b815260040160405180910390fd5b6040516306ab592360e01b81527f00000000000000000000000000000000000000000000000000000000000000006004820152602481018390523360448201526e0c2e074ec69a0dfb2997ba6c7d2e1e906306ab5923906064016020604051808303815f875af1158015610c39573d5f5f3e3d5ffd5b505050506040513d601f19601f82011682018060405250810190610c5d919061196b565b506040518060800160405280336001600160a01b0316815260200185858080601f0160208091040260200160405190810160405280939291908181526020018383808284375f92019190915250505090825250604080516020601f8a01819004810282018101909252888152918101919089908990819084018382808284375f920191909152505050908252506001602090910152604051600490610d05908b908b90611735565b90815260405160209181900382019020825181546001600160a01b0319166001600160a01b03909116178155908201516001820190610d449082611982565b5060408201516002820190610d599082611982565b50606091909101516003909101805460ff191691151591909117905560405188908890600590610d8c908a908a90611735565b90815260200160405180910390209182610da7929190611827565b50336001600160a01b0316817f97d06654379e5efa26f069ca2dee50b6d13cb5f323c3d7d7066577c4c86fe91e8888604051610de4929190611a3c565b60405180910390a36040513390610dfe908a908a90611735565b60405180910390207f078c4c58ca380637bea998c0ace11ac76b23fc9b956c9ed819747f41b65c59bd88888888604051610e3b9493929190611a4f565b60405180910390a35050505050505050565b8051602081830181018051600482529282019190930120915280546001820180546001600160a01b039092169291610e8490611744565b80601f0160208091040260200160405190810160405280929190818152602001828054610eb090611744565b8015610efb5780601f10610ed257610100808354040283529160200191610efb565b820191905f5260205f20905b815481529060010190602001808311610ede57829003601f168201915b505050505090806002018054610f1090611744565b80601f0160208091040260200160405190810160405280929190818152602001828054610f3c90611744565b8015610f875780601f10610f5e57610100808354040283529160200191610f87565b820191905f5260205f20905b815481529060010190602001808311610f6a57829003601f168201915b5050506003909301549192505060ff1684565b5f849003610fbb57604051632abd438960e21b815260040160405180910390fd5b5f610fc68686610950565b5f8181526003602052604090205490915060ff1615610ff85760405163ca2f36c360e01b815260040160405180910390fd5b5f86863060405160200161100e93929190611a80565b6040516020818303038152906040528051906020012090505f6110668286868080601f0160208091040260200160405190810160405280939291908181526020018383808284375f9201919091525061114092505050565b9050856001600160a01b0316816001600160a01b031614611099576040516282b42960e81b815260040160405180910390fd5b5f83815260026020908152604080832080546001600160a01b0319166001600160a01b038b16908117909155600390925291829020805460ff19166001179055905184907fc53c07fb641c4cc0270d682bc95e6ae470f8feb8e4a2c06c56c3074bf3127ada90610e3b908c908c90611a3c565b600660209081525f92835260409092208151808301840180519281529084019290930191909120915280546107ef90611744565b6040517f19457468657265756d205369676e6564204d6573736167653a0a3332000000006020820152603c81018390525f908190605c016040516020818303038152906040528051906020012090505f5f5f61119b86611209565b604080515f81526020810180835289905260ff8516918101919091526060810183905260808101829052929550909350915060019060a0016020604051602081039080840390855afa1580156111f3573d5f5f3e3d5ffd5b5050604051601f19015198975050505050505050565b5f5f5f83516041146112565760405162461bcd60e51b81526020600482015260126024820152710d2dcecc2d8d2c840e6d2ce40d8cadccee8d60731b604482015260640160405180910390fd5b505050602081015160408201516060909201515f1a92909190565b5f5f83601f840112611281575f5ffd5b5081356001600160401b03811115611297575f5ffd5b6020830191508360208285010111156112ae575f5ffd5b9250929050565b5f5f602083850312156112c6575f5ffd5b82356001600160401b038111156112db575f5ffd5b6112e785828601611271565b90969095509350505050565b5f5f5f5f60408587031215611306575f5ffd5b84356001600160401b0381111561131b575f5ffd5b61132787828801611271565b90955093505060208501356001600160401b03811115611345575f5ffd5b61135187828801611271565b95989497509550505050565b5f81518084528060208401602086015e5f602082860101526020601f19601f83011685010191505092915050565b602081525f61139d602083018461135d565b9392505050565b5f5f5f5f5f5f5f5f6080898b0312156113bb575f5ffd5b88356001600160401b038111156113d0575f5ffd5b6113dc8b828c01611271565b90995097505060208901356001600160401b038111156113fa575f5ffd5b6114068b828c01611271565b90975095505060408901356001600160401b03811115611424575f5ffd5b6114308b828c01611271565b90955093505060608901356001600160401b0381111561144e575f5ffd5b61145a8b828c01611271565b999c989b5096995094979396929594505050565b5f6020828403121561147e575f5ffd5b5035919050565b634e487b7160e01b5f52604160045260245ffd5b5f82601f8301126114a8575f5ffd5b81356001600160401b038111156114c1576114c1611485565b604051601f8201601f19908116603f011681016001600160401b03811182821017156114ef576114ef611485565b604052818152838201602001851015611506575f5ffd5b816020850160208301375f918101602001919091529392505050565b5f60208284031215611532575f5ffd5b81356001600160401b03811115611547575f5ffd5b61155384828501611499565b949350505050565b6001600160a01b038116811461156f575f5ffd5b50565b5f60208284031215611582575f5ffd5b813561139d8161155b565b5f5f5f5f5f5f606087890312156115a2575f5ffd5b86356001600160401b038111156115b7575f5ffd5b6115c389828a01611271565b90975095505060208701356001600160401b038111156115e1575f5ffd5b6115ed89828a01611271565b90955093505060408701356001600160401b0381111561160b575f5ffd5b61161789828a01611271565b979a9699509497509295939492505050565b6001600160a01b03851681526080602082018190525f9061164c9083018661135d565b828103604084015261165e818661135d565b915050821515606083015295945050505050565b5f5f5f5f5f60608688031215611686575f5ffd5b85356001600160401b0381111561169b575f5ffd5b6116a788828901611271565b90965094505060208601356116bb8161155b565b925060408601356001600160401b038111156116d5575f5ffd5b6116e188828901611271565b969995985093965092949392505050565b5f5f60408385031215611703575f5ffd5b8235915060208301356001600160401b0381111561171f575f5ffd5b61172b85828601611499565b9150509250929050565b818382375f9101908152919050565b600181811c9082168061175857607f821691505b60208210810361177657634e487b7160e01b5f52602260045260245ffd5b50919050565b694973737565436c61696d60b01b81528688600a8301375f878201600a81015f815287898237505f908701600a019081528486823760609390931b6bffffffffffffffffffffffff191692909301918252506014019695505050505050565b601f82111561182257805f5260205f20601f840160051c810160208510156118005750805b601f840160051c820191505b8181101561181f575f815560010161180c565b50505b505050565b6001600160401b0383111561183e5761183e611485565b6118528361184c8354611744565b836117db565b5f601f841160018114611883575f851561186c5750838201355b5f19600387901b1c1916600186901b17835561181f565b5f83815260208120601f198716915b828110156118b25786850135825560209485019460019092019101611892565b50868210156118ce575f1960f88860031b161c19848701351681555b505060018560011b0183555050505050565b81835281816020850137505f828201602090810191909152601f909101601f19169091010190565b606081525f61191b60608301888a6118e0565b828103602084015261192e8187896118e0565b905082810360408401526119438185876118e0565b9998505050505050505050565b5f60208284031215611960575f5ffd5b815161139d8161155b565b5f6020828403121561197b575f5ffd5b5051919050565b81516001600160401b0381111561199b5761199b611485565b6119af816119a98454611744565b846117db565b6020601f8211600181146119e1575f83156119ca5750848201515b5f19600385901b1c1916600184901b17845561181f565b5f84815260208120601f198516915b82811015611a1057878501518255602094850194600190920191016119f0565b5084821015611a2d57868401515f19600387901b60f8161c191681555b50505050600190811b01905550565b602081525f6115536020830184866118e0565b604081525f611a626040830186886118e0565b8281036020840152611a758185876118e0565b979650505050505050565b672932b3b4b9ba32b960c11b81528284600883013760609190911b6bffffffffffffffffffffffff191660089190920190810191909152601c0191905056fea2646970667358221220b90c340dad512740a3ab26e89ef6326edc5d91a18a2b22b95326e4382fb8e76664736f6c634300081c0033",
  "linkReferences": {},
  "deployedLinkReferences": {},
  "immutableReferences": {
    "57": [
      {
        "length": 32,
        "start": 428
      },
      {
        "length": 32,
        "start": 2788
      },
      {
        "length": 32,
        "start": 3026
      }
    ]
  },
  "inputSourceName": "project/contracts/ProofOfMe.sol",
  "buildInfoId": "solc-0_8_28-433ed2e1cfeefa0472bd491f193d8d88966687de"
}